{"abi":[{"type":"constructor","inputs":[{"name":"_bridge_address","type":"address","internalType":"address"}],"stateMutability":"nonpayable"},{"type":"function","name":"assign","inputs":[{"name":"tokenId","type":"string","internalType":"string"},{"name":"receiver_account","type":"address","internalType":"address"},{"name":"amount","type":"uint256","internalType":"uint256"}],"outputs":[{"name":"success","type":"bool","internalType":"bool"}],"stateMutability":"nonpayable"},{"type":"function","name":"bridge_address","inputs":[],"outputs":[{"name":"","type":"address","internalType":"address"}],"stateMutability":"view"},{"type":"function","name":"burn","inputs":[{"name":"tokenId","type":"string","internalType":"string"},{"name":"amount","type":"uint256","internalType":"uint256"}],"outputs":[{"name":"success","type":"bool","internalType":"bool"}],"stateMutability":"nonpayable"},{"type":"function","name":"getAllAssetsIDs","inputs":[],"outputs":[{"name":"","type":"string[]","internalType":"string[]"}],"stateMutability":"view"},{"type":"function","name":"getToken","inputs":[{"name":"tokenId","type":"string","internalType":"string"}],"outputs":[{"name":"token","type":"tuple","internalType":"struct Token","components":[{"name":"contractAddress","type":"address","internalType":"address"},{"name":"tokenType","type":"uint8","internalType":"enum TokenType"},{"name":"tokenId","type":"string","internalType":"string"},{"name":"owner","type":"address","internalType":"address"},{"name":"amount","type":"uint256","internalType":"uint256"}]}],"stateMutability":"view"},{"type":"function","name":"isPaused","inputs":[],"outputs":[{"name":"","type":"bool","internalType":"bool"}],"stateMutability":"view"},{"type":"function","name":"lock","inputs":[{"name":"tokenId","type":"string","internalType":"string"},{"name":"amount","type":"uint256","internalType":"uint256"}],"outputs":[{"name":"success","type":"bool","internalType":"bool"}],"stateMutability":"nonpayable"},{"type":"function","name":"mint","inputs":[{"name":"tokenId","type":"string","internalType":"string"},{"name":"amount","type":"uint256","internalType":"uint256"}],"outputs":[{"name":"success","type":"bool","internalType":"bool"}],"stateMutability":"nonpayable"},{"type":"function","name":"owner","inputs":[],"outputs":[{"name":"","type":"address","internalType":"address"}],"stateMutability":"view"},{"type":"function","name":"pause","inputs":[],"outputs":[],"stateMutability":"nonpayable"},{"type":"function","name":"paused","inputs":[],"outputs":[{"name":"","type":"bool","internalType":"bool"}],"stateMutability":"view"},{"type":"function","name":"renounceOwnership","inputs":[],"outputs":[],"stateMutability":"nonpayable"},{"type":"function","name":"tokens","inputs":[{"name":"","type":"string","internalType":"string"}],"outputs":[{"name":"contractAddress","type":"address","internalType":"address"},{"name":"tokenType","type":"uint8","internalType":"enum TokenType"},{"name":"tokenId","type":"string","internalType":"string"},{"name":"owner","type":"address","internalType":"address"},{"name":"amount","type":"uint256","internalType":"uint256"}],"stateMutability":"view"},{"type":"function","name":"tokensInteractions","inputs":[{"name":"","type":"string","internalType":"string"},{"name":"","type":"uint8","internalType":"enum InteractionType"}],"outputs":[{"name":"interactionType","type":"uint8","internalType":"enum InteractionType"},{"name":"available","type":"bool","internalType":"bool"}],"stateMutability":"view"},{"type":"function","name":"transferOwnership","inputs":[{"name":"newOwner","type":"address","internalType":"address"}],"outputs":[],"stateMutability":"nonpayable"},{"type":"function","name":"unlock","inputs":[{"name":"tokenId","type":"string","internalType":"string"},{"name":"amount","type":"uint256","internalType":"uint256"}],"outputs":[{"name":"success","type":"bool","internalType":"bool"}],"stateMutability":"nonpayable"},{"type":"function","name":"unpause","inputs":[],"outputs":[],"stateMutability":"nonpayable"},{"type":"function","name":"unwrap","inputs":[{"name":"tokenId","type":"string","internalType":"string"}],"outputs":[{"name":"success","type":"bool","internalType":"bool"}],"stateMutability":"nonpayable"},{"type":"function","name":"wrap","inputs":[{"name":"contractAddress","type":"address","internalType":"address"},{"name":"tokenType","type":"uint8","internalType":"enum TokenType"},{"name":"tokenId","type":"string","internalType":"string"},{"name":"owner","type":"address","internalType":"address"},{"name":"interactions","type":"tuple[]","internalType":"struct InteractionSignature[]","components":[{"name":"interactionType","type":"uint8","internalType":"enum InteractionType"},{"name":"functionsSignature","type":"string[]","internalType":"string[]"},{"name":"variables","type":"uint8[][]","internalType":"enum VarType[][]"},{"name":"available","type":"bool","internalType":"bool"}]}],"outputs":[{"name":"wrapSuccess","type":"bool","internalType":"bool"}],"stateMutability":"nonpayable"},{"type":"function","name":"wrap","inputs":[{"name":"contractAddress","type":"address","internalType":"address"},{"name":"tokenType","type":"uint8","internalType":"enum TokenType"},{"name":"tokenId","type":"string","internalType":"string"},{"name":"owner","type":"address","internalType":"address"}],"outputs":[{"name":"wrapSuccess","type":"bool","internalType":"bool"}],"stateMutability":"nonpayable"},{"type":"event","name":"Assign","inputs":[{"name":"tokenId","type":"string","indexed":false,"internalType":"string"},{"name":"receiver_account","type":"address","indexed":false,"internalType":"address"},{"name":"amount","type":"uint256","indexed":false,"internalType":"uint256"}],"anonymous":false},{"type":"event","name":"Burn","inputs":[{"name":"tokenId","type":"string","indexed":false,"internalType":"string"},{"name":"amount","type":"uint256","indexed":false,"internalType":"uint256"}],"anonymous":false},{"type":"event","name":"Changed","inputs":[{"name":"id","type":"string","indexed":true,"internalType":"string"},{"name":"value","type":"bytes[]","indexed":false,"internalType":"bytes[]"}],"anonymous":false},{"type":"event","name":"Lock","inputs":[{"name":"tokenId","type":"string","indexed":false,"internalType":"string"},{"name":"amount","type":"uint256","indexed":false,"internalType":"uint256"}],"anonymous":false},{"type":"event","name":"Mint","inputs":[{"name":"tokenId","type":"string","indexed":false,"internalType":"string"},{"name":"amount","type":"uint256","indexed":false,"internalType":"uint256"}],"anonymous":false},{"type":"event","name":"OwnershipTransferred","inputs":[{"name":"previousOwner","type":"address","indexed":true,"internalType":"address"},{"name":"newOwner","type":"address","indexed":true,"internalType":"address"}],"anonymous":false},{"type":"event","name":"Paused","inputs":[{"name":"account","type":"address","indexed":false,"internalType":"address"}],"anonymous":false},{"type":"event","name":"Unlock","inputs":[{"name":"tokenId","type":"string","indexed":false,"internalType":"string"},{"name":"amount","type":"uint256","indexed":false,"internalType":"uint256"}],"anonymous":false},{"type":"event","name":"Unpaused","inputs":[{"name":"account","type":"address","indexed":false,"internalType":"address"}],"anonymous":false},{"type":"event","name":"Unwrap","inputs":[{"name":"tokenId","type":"string","indexed":false,"internalType":"string"}],"anonymous":false},{"type":"event","name":"Wrap","inputs":[{"name":"contractAddress","type":"address","indexed":false,"internalType":"address"},{"name":"tokenType","type":"uint8","indexed":false,"internalType":"enum TokenType"},{"name":"tokenId","type":"string","indexed":false,"internalType":"string"},{"name":"owner","type":"address","indexed":false,"internalType":"address"}],"anonymous":false},{"type":"error","name":"EnforcedPause","inputs":[]},{"type":"error","name":"ExpectedPause","inputs":[]},{"type":"error","name":"InsuficientAmountLocked","inputs":[{"name":"tokenId","type":"string","internalType":"string"},{"name":"amount","type":"uint256","internalType":"uint256"}]},{"type":"error","name":"OwnableInvalidOwner","inputs":[{"name":"owner","type":"address","internalType":"address"}]},{"type":"error","name":"OwnableUnauthorizedAccount","inputs":[{"name":"account","type":"address","internalType":"address"}]},{"type":"error","name":"TokenAlreadyWrapped","inputs":[{"name":"tokenId","type":"string","internalType":"string"}]},{"type":"error","name":"TokenLocked","inputs":[{"name":"tokenId","type":"string","internalType":"string"}]},{"type":"error","name":"TokenNotAvailable","inputs":[{"name":"tokenId","type":"string","internalType":"string"}]},{"type":"error","name":"TokenNotLocked","inputs":[{"name":"tokenId","type":"string","internalType":"string"}]},{"type":"error","name":"TokenNotUnlocked","inputs":[{"name":"tokenId","type":"string","internalType":"string"}]}],"bytecode":{"object":"0x60806040523480156200001157600080fd5b5060405162002e3338038062002e338339810160408190526200003491620000f3565b806001600160a01b0381166200006457604051631e4fbdf760e01b81526000600482015260240160405180910390fd5b6200006f81620000a3565b506000805460ff60a01b19169055600480546001600160a01b0319166001600160a01b039290921691909117905562000125565b600080546001600160a01b038381166001600160a01b0319831681178455604051919092169283917f8be0079c531659141344cd1fd0a4f28419497f9722a3daafe3b4186f6b6457e09190a35050565b6000602082840312156200010657600080fd5b81516001600160a01b03811681146200011e57600080fd5b9392505050565b612cfe80620001356000396000f3fe608060405234801561001057600080fd5b506004361061012c5760003560e01c80638456cb59116100ad578063c1733f6811610071578063c1733f681461025d578063d9cf884c1461027d578063e1efb59614610290578063ea8f547f146102a3578063f2fde38b146102fa57600080fd5b80638456cb591461021e5780638da5cb5b14610226578063a1bc17c514610237578063b187bd26146101de578063b48272cc1461024a57600080fd5b80635137b8a7116100f45780635137b8a7146101c95780635c975abb146101de578063623662ad146101f0578063715018a61461020357806372d4c33b1461020b57600080fd5b806304c2320b14610131578063056b01ce1461015e5780631255c189146101815780633f4ba83a146101ac5780634534ba17146101b6575b600080fd5b61014461013f366004611fc2565b61030d565b604051610155959493929190612070565b60405180910390f35b61017161016c3660046120b4565b6103ed565b6040519015158152602001610155565b600454610194906001600160a01b031681565b6040516001600160a01b039091168152602001610155565b6101b4610516565b005b6101716101c436600461210f565b610530565b6101d1610688565b6040516101559190612165565b600054600160a01b900460ff16610171565b6101716101fe366004612317565b610761565b6101b4610a0a565b610171610219366004612581565b610a1c565b6101b4610b05565b6000546001600160a01b0316610194565b610171610245366004611fc2565b610b1d565b6101716102583660046120b4565b610d12565b61027061026b366004611fc2565b610e4e565b60405161015591906125ef565b61017161028b3660046120b4565b610fa1565b61017161029e3660046120b4565b6110f8565b6102ec6102b1366004612654565b8151602081840181018051600282529282019482019490942091909352909152600090815260409020805460039091015460ff918216911682565b6040516101559291906126b1565b6101b46103083660046126ce565b6111f7565b805160208183018101805160018083529383019290940191909120929052815490820180546001600160a01b03831693600160a01b90930460ff16929190610354906126e9565b80601f0160208091040260200160405190810160405280929190818152602001828054610380906126e9565b80156103cd5780601f106103a2576101008083540402835291602001916103cd565b820191906000526020600020905b8154815290600101906020018083116103b057829003601f168201915b50505050600283015460039093015491926001600160a01b031691905085565b60006103f7611235565b6103ff611262565b60006001600160a01b031660018460405161041a9190612723565b908152604051908190036020019020546001600160a01b03160361045c578260405163c0bab25f60e01b8152600401610453919061273f565b60405180910390fd5b6104688360008461128d565b6104ad5760405162461bcd60e51b81526020600482015260166024820152751b5a5b9d08185cdcd95d0818d85b1b0819985a5b195960521b6044820152606401610453565b816001846040516104be9190612723565b9081526020016040518091039020600301819055507f0a4e1e5035320483d096cf114513007c4eda3853a4dca806da2d9faec60470a68383604051610504929190612752565b60405180910390a15060015b92915050565b61051e611235565b61052661129c565b61052e6112c6565b565b600061053a611235565b610542611262565b816001856040516105539190612723565b90815260200160405180910390206003015410156105b35760405162461bcd60e51b815260206004820181905260248201527f61737369676e206173736574206173736574206973206e6f74206c6f636b65646044820152606401610453565b6105c0846002848661131b565b61060c5760405162461bcd60e51b815260206004820152601860248201527f61737369676e2061737365742063616c6c206661696c656400000000000000006044820152606401610453565b8160018560405161061d9190612723565b9081526020016040518091039020600301600082825461063d919061278a565b90915550506040517f0b3112bdbedc0251766a323a5c6ad4df77174bbc08bd61b944815ad9efe8d54c906106769086908690869061279d565b60405180910390a15060019392505050565b60606003805480602002602001604051908101604052809291908181526020016000905b828210156107585783829060005260206000200180546106cb906126e9565b80601f01602080910402602001604051908101604052809291908181526020018280546106f7906126e9565b80156107445780601f1061071957610100808354040283529160200191610744565b820191906000526020600020905b81548152906001019060200180831161072757829003601f168201915b5050505050815260200190600101906106ac565b50505050905090565b600061076b611235565b610773611262565b60006001600160a01b031660018560405161078e9190612723565b908152604051908190036020019020546001600160a01b0316146107c757836040516319eac8d160e21b8152600401610453919061273f565b6107d18483611634565b6002846040516107e19190612723565b9081526040805160209281900383019020600360008181529190935220015460ff161561088557610813846003611754565b6108855760405162461bcd60e51b815260206004820152603c60248201527f436f6e747261637420646f6573206e6f742068617665207065726d697373696f60448201527f6e20746f20696e74657261637420776974682074686520746f6b656e000000006064820152608401610453565b6040518060a00160405280876001600160a01b031681526020018660038111156108b1576108b1611ff6565b8152602001858152602001846001600160a01b0316815260200160008152506001856040516108e09190612723565b908152604051908190036020908101909120825181546001600160a01b039091166001600160a01b031982168117835592840151919283916001600160a81b03191617600160a01b83600381111561093a5761093a611ff6565b0217905550604082015160018201906109539082612819565b5060608201516002820180546001600160a01b0319166001600160a01b0390921691909117905560809091015160039182015580546001810182556000919091527fc2575a0e9e593c00f959f8c92f12db2869c3395a3b0502d05e2516446f71f85b016109c08582612819565b507ffc4880465dc3977b851975c93dcde086945a51118c42a660991dce4cab2b0966868686866040516109f694939291906128d8565b60405180910390a150600195945050505050565b610a12611235565b61052e600061176a565b6000610a26611235565b610a2e611262565b3063623662ad868686866000604051908082528060200260200182016040528015610a9657816020015b610a836040805160808101909152806000815260606020820181905260408201819052600091015290565b815260200190600190039081610a585790505b506040518663ffffffff1660e01b8152600401610ab79594939291906129a6565b6020604051808303816000875af1158015610ad6573d6000803e3d6000fd5b505050506040513d601f19601f82011682018060405250810190610afa9190612ad4565b90505b949350505050565b610b0d611235565b610b15611262565b61052e6117ba565b6000610b27611235565b610b2f611262565b60006001600160a01b0316600183604051610b4a9190612723565b908152604051908190036020019020546001600160a01b031603610b83578160405163c0bab25f60e01b8152600401610453919061273f565b6000600183604051610b959190612723565b9081526020016040518091039020600301541115610bc85781604051635be9608560e11b8152600401610453919061273f565b610c7a600183604051610bdb9190612723565b90815260200160405180910390206001018054610bf7906126e9565b80601f0160208091040260200160405190810160405280929190818152602001828054610c23906126e9565b8015610c705780601f10610c4557610100808354040283529160200191610c70565b820191906000526020600020905b815481529060010190602001808311610c5357829003601f168201915b50505050506117fd565b600182604051610c8a9190612723565b90815260405190819003602001902080546001600160a81b03191681556000610cb66001830182611cd8565b506002810180546001600160a01b031916905560006003909101556040517f3855d31914452a5e7361730662e60834555d7cb26d380140894d85fd0d13b85490610d0190849061273f565b60405180910390a15060015b919050565b6000610d1c611235565b610d24611262565b81600184604051610d359190612723565b9081526020016040518091039020600301541015610d955760405162461bcd60e51b815260206004820152601e60248201527f6275726e206173736574206173736574206973206e6f74206c6f636b656400006044820152606401610453565b610da18360018461128d565b610de65760405162461bcd60e51b8152602060048201526016602482015275189d5c9b88185cdcd95d0818d85b1b0819985a5b195960521b6044820152606401610453565b81600184604051610df79190612723565b90815260200160405180910390206003016000828254610e17919061278a565b90915550506040517fa0237080cf48d9e1fbb9ef1f82e33b11170d047b2b540a73b457d0916d53ee99906105049085908590612752565b610e806040805160a0810190915260008082526020820190815260606020820181905260006040830181905291015290565b600182604051610e909190612723565b908152604080516020928190038301812060a0820190925281546001600160a01b03811682529092830190600160a01b900460ff166003811115610ed657610ed6611ff6565b6003811115610ee757610ee7611ff6565b8152602001600182018054610efb906126e9565b80601f0160208091040260200160405190810160405280929190818152602001828054610f27906126e9565b8015610f745780601f10610f4957610100808354040283529160200191610f74565b820191906000526020600020905b815481529060010190602001808311610f5757829003601f168201915b505050918352505060028201546001600160a01b0316602082015260039091015460409091015292915050565b6000610fab611235565b610fb3611262565b60006001600160a01b0316600184604051610fce9190612723565b908152604051908190036020019020546001600160a01b031603611007578260405163c0bab25f60e01b8152600401610453919061273f565b816001846040516110189190612723565b908152602001604051809103902060030154101561104d57828260405163076abcf360e51b8152600401610453929190612752565b600061105b8460058561128d565b905080156110dd57826001856040516110749190612723565b90815260200160405180910390206003016000828254611094919061278a565b90915550506040517f7b3c894115251262b174b7aeab24a57e00bc2e8853d1ef2f57a217edaa69c06e906110cb9086908690612752565b60405180910390a16001915050610510565b836040516358300fe760e01b8152600401610453919061273f565b6000611102611235565b61110a611262565b60006001600160a01b03166001846040516111259190612723565b908152604051908190036020019020546001600160a01b03160361115e578260405163c0bab25f60e01b8152600401610453919061273f565b600061116c8460048561128d565b905080156111dc57826001856040516111859190612723565b908152602001604051809103902060030160008282546111a59190612af1565b90915550506040517fc480ef4e831b2ca5eb0b2f95c6564d9a56af5b3fe2383393008e3f1708dc9797906110cb9086908690612752565b8360405163412204b560e11b8152600401610453919061273f565b6111ff611235565b6001600160a01b03811661122957604051631e4fbdf760e01b815260006004820152602401610453565b6112328161176a565b50565b6000546001600160a01b0316331461052e5760405163118cdaa760e01b8152336004820152602401610453565b600054600160a01b900460ff161561052e5760405163d93c066560e01b815260040160405180910390fd5b6000610afd848484600061131b565b600054600160a01b900460ff1661052e57604051638dfc202b60e01b815260040160405180910390fd5b6112ce61129c565b6000805460ff60a01b191690557f5db9ee0a495bf2e6ff9c91a7834c1ba4fdd244a5e8aa4e537bd38aeae4b073aa335b6040516001600160a01b03909116815260200160405180910390a1565b600060028560405161132d9190612723565b9081526020016040518091039020600085600581111561134f5761134f611ff6565b600581111561136057611360611ff6565b815260208101919091526040016000206003015460ff1661138357506000610afd565b60005b6002866040516113969190612723565b908152602001604051809103902060008660058111156113b8576113b8611ff6565b60058111156113c9576113c9611ff6565b81526020810191909152604001600020600101548110156116285760006002876040516113f69190612723565b9081526020016040518091039020600087600581111561141857611418611ff6565b600581111561142957611429611ff6565b8152602001908152602001600020600101828154811061144b5761144b612b04565b906000526020600020016040516020016114659190612b1a565b60405160208183030381529060405280519060200120905060006115818261157c60028b6040516114969190612723565b908152602001604051809103902060008b60058111156114b8576114b8611ff6565b60058111156114c9576114c9611ff6565b815260200190815260200160002060020186815481106114eb576114eb612b04565b9060005260206000200180548060200260200160405190810160405280929190818152602001828054801561156f57602002820191906000526020600020906000905b82829054906101000a900460ff16600681111561154d5761154d611ff6565b81526020600192830181810494850194909303909202910180841161152e5790505b50505050508b898b61195b565b611c2a565b905060006001896040516115959190612723565b908152604051908190036020018120546001600160a01b0316906115ba908490612723565b6000604051808303816000865af19150503d80600081146115f7576040519150601f19603f3d011682016040523d82523d6000602084013e6115fc565b606091505b5050905080611612576000945050505050610afd565b505050808061162090612b90565b915050611386565b50600195945050505050565b60005b815181101561174f5781818151811061165257611652612b04565b602002602001015160028460405161166a9190612723565b9081526020016040518091039020600084848151811061168c5761168c612b04565b60200260200101516000015160058111156116a9576116a9611ff6565b60058111156116ba576116ba611ff6565b8152602081019190915260400160002081518154829060ff191660018360058111156116e8576116e8611ff6565b021790555060208281015180516117059260018501920190611d12565b5060408201518051611721916002840191602090910190611d68565b50606091909101516003909101805460ff19169115159190911790558061174781612b90565b915050611637565b505050565b6000611763838360008061131b565b9392505050565b600080546001600160a01b038381166001600160a01b0319831681178455604051919092169283917f8be0079c531659141344cd1fd0a4f28419497f9722a3daafe3b4186f6b6457e09190a35050565b6117c2611262565b6000805460ff60a01b1916600160a01b1790557f62e78cea01bee320cd4e420270b5ea74000d11b0c9f74754ebdbfc544b05a2586112fe3390565b60005b600354811015611957576118b96003828154811061182057611820612b04565b906000526020600020018054611835906126e9565b80601f0160208091040260200160405190810160405280929190818152602001828054611861906126e9565b80156118ae5780601f10611883576101008083540402835291602001916118ae565b820191906000526020600020905b81548152906001019060200180831161189157829003601f168201915b505050505083611cb3565b1561194557600380546118ce9060019061278a565b815481106118de576118de612b04565b90600052602060002001600382815481106118fb576118fb612b04565b9060005260206000200190816119119190612ba9565b50600380548061192357611923612c83565b60019003818190600052602060002001600061193f9190611cd8565b90555050565b8061194f81612b90565b915050611800565b5050565b6060600085516001600160401b0381111561197857611978611ee5565b6040519080825280602002602001820160405280156119ab57816020015b60608152602001906001900390816119965790505b50905060005b8651811015611c205760058782815181106119ce576119ce612b04565b602002602001015160068111156119e7576119e7611ff6565b03611a295760408051306020820152015b604051602081830303815290604052828281518110611a1957611a19612b04565b6020026020010181905250611c0e565b6002878281518110611a3d57611a3d612b04565b60200260200101516006811115611a5657611a56611ff6565b03611a6c57856040516020016119f8919061273f565b6004878281518110611a8057611a80612b04565b60200260200101516006811115611a9957611a99611ff6565b03611aaf576040805160208101869052016119f8565b6003878281518110611ac357611ac3612b04565b60200260200101516006811115611adc57611adc611ff6565b03611b1a57600186604051611af19190612723565b908152604080519182900360209081018320600201546001600160a01b031690830152016119f8565b6000878281518110611b2e57611b2e612b04565b60200260200101516006811115611b4757611b47611ff6565b03611b8257600186604051611b5c9190612723565b908152604080519182900360209081018320546001600160a01b031690830152016119f8565b6006878281518110611b9657611b96612b04565b60200260200101516006811115611baf57611baf611ff6565b03611bcd57604080516001600160a01b0387166020820152016119f8565b60405162461bcd60e51b815260206004820152601660248201527515985c9a58589b19481b9bdd081cdd5c1c1bdc9d195960521b6044820152606401610453565b80611c1881612b90565b9150506119b1565b5095945050505050565b604080516001600160e01b03198416602082015281516004818303018152602490910190915260005b8251811015611cac5781838281518110611c6f57611c6f612b04565b6020026020010151604051602001611c88929190612c99565b60405160208183030381529060405291508080611ca490612b90565b915050611c53565b5092915050565b6000815183511480156117635750508051602091820120825192909101919091201490565b508054611ce4906126e9565b6000825580601f10611cf4575050565b601f0160209004906000526020600020908101906112329190611dc1565b828054828255906000526020600020908101928215611d58579160200282015b82811115611d585782518290611d489082612819565b5091602001919060010190611d32565b50611d64929150611dd6565b5090565b828054828255906000526020600020908101928215611db5579160200282015b82811115611db55782518051611da5918491602090910190611df3565b5091602001919060010190611d88565b50611d64929150611ea3565b5b80821115611d645760008155600101611dc2565b80821115611d64576000611dea8282611cd8565b50600101611dd6565b82805482825590600052602060002090601f01602090048101928215611e975791602002820160005b83821115611e6857835183826101000a81548160ff02191690836006811115611e4757611e47611ff6565b02179055509260200192600101602081600001049283019260010302611e1c565b8015611e955782816101000a81549060ff0219169055600101602081600001049283019260010302611e68565b505b50611d64929150611dc1565b80821115611d64576000611eb78282611ec0565b50600101611ea3565b50805460008255601f0160209004906000526020600020908101906112329190611dc1565b634e487b7160e01b600052604160045260246000fd5b604051608081016001600160401b0381118282101715611f1d57611f1d611ee5565b60405290565b604051601f8201601f191681016001600160401b0381118282101715611f4b57611f4b611ee5565b604052919050565b600082601f830112611f6457600080fd5b81356001600160401b03811115611f7d57611f7d611ee5565b611f90601f8201601f1916602001611f23565b818152846020838601011115611fa557600080fd5b816020850160208301376000918101602001919091529392505050565b600060208284031215611fd457600080fd5b81356001600160401b03811115611fea57600080fd5b610afd84828501611f53565b634e487b7160e01b600052602160045260246000fd5b6004811061201c5761201c611ff6565b9052565b60005b8381101561203b578181015183820152602001612023565b50506000910152565b6000815180845261205c816020860160208601612020565b601f01601f19169290920160200192915050565b6001600160a01b03868116825260009061208d602084018861200c565b60a060408401526120a160a0840187612044565b9416606083015250608001529392505050565b600080604083850312156120c757600080fd5b82356001600160401b038111156120dd57600080fd5b6120e985828601611f53565b95602094909401359450505050565b80356001600160a01b0381168114610d0d57600080fd5b60008060006060848603121561212457600080fd5b83356001600160401b0381111561213a57600080fd5b61214686828701611f53565b935050612155602085016120f8565b9150604084013590509250925092565b6000602080830181845280855180835260408601915060408160051b870101925083870160005b828110156121ba57603f198886030184526121a8858351612044565b9450928501929085019060010161218c565b5092979650505050505050565b803560048110610d0d57600080fd5b60006001600160401b038211156121ef576121ef611ee5565b5060051b60200190565b803560068110610d0d57600080fd5b600082601f83011261221957600080fd5b8135602061222e612229836121d6565b611f23565b828152600592831b850182019282820191908785111561224d57600080fd5b8387015b858110156122f15780356001600160401b038111156122705760008081fd5b8801603f81018a136122825760008081fd5b858101356040612294612229836121d6565b82815291851b8301810191888101908d8411156122b15760008081fd5b938201935b838510156122e05784359250600783106122d05760008081fd5b82825293890193908901906122b6565b885250505093850193508401612251565b5090979650505050505050565b801515811461123257600080fd5b8035610d0d816122fe565b600080600080600060a0868803121561232f57600080fd5b612338866120f8565b9450612346602087016121c7565b93506001600160401b036040870135111561236057600080fd5b6123708760408801358801611f53565b925061237e606087016120f8565b91506001600160401b036080870135111561239857600080fd5b86601f6080880135880101126123ad57600080fd5b6123c061222960808801358801356121d6565b6080870135870180358083526020808401939260059290921b909101018910156123e957600080fd5b602060808901358901015b60808901358901803560051b01602001811015612571576001600160401b038135111561242057600080fd5b803560808a01358a01016080601f19828d0301121561243e57600080fd5b612446611efb565b612452602083016121f9565b81526001600160401b036040830135111561246c57600080fd5b8b603f60408401358401011261248157600080fd5b61249761222960206040850135850101356121d6565b6020604084810135850182810135808552928401939260051b01018e10156124be57600080fd5b6040808501358501015b6040858101358601602081013560051b010181101561251a576001600160401b03813511156124f657600080fd5b61250c8f60408335604089013589010101611f53565b8352602092830192016124c8565b506020830152506001600160401b036060830135111561253957600080fd5b61254c8c60206060850135850101612208565b604082015261255d6080830161230c565b6060820152845250602092830192016123f4565b5080925050509295509295909350565b6000806000806080858703121561259757600080fd5b6125a0856120f8565b93506125ae602086016121c7565b925060408501356001600160401b038111156125c957600080fd5b6125d587828801611f53565b9250506125e4606086016120f8565b905092959194509250565b60208152600060018060a01b038084511660208401526020840151612617604085018261200c565b50604084015160a0606085015261263160c0850182612044565b9050816060860151166080850152608085015160a0850152809250505092915050565b6000806040838503121561266757600080fd5b82356001600160401b0381111561267d57600080fd5b61268985828601611f53565b925050612698602084016121f9565b90509250929050565b6006811061201c5761201c611ff6565b604081016126bf82856126a1565b82151560208301529392505050565b6000602082840312156126e057600080fd5b611763826120f8565b600181811c908216806126fd57607f821691505b60208210810361271d57634e487b7160e01b600052602260045260246000fd5b50919050565b60008251612735818460208701612020565b9190910192915050565b6020815260006117636020830184612044565b6040815260006127656040830185612044565b90508260208301529392505050565b634e487b7160e01b600052601160045260246000fd5b8181038181111561051057610510612774565b6060815260006127b06060830186612044565b6001600160a01b039490941660208301525060400152919050565b601f82111561174f57600081815260208120601f850160051c810160208610156127f25750805b601f850160051c820191505b81811015612811578281556001016127fe565b505050505050565b81516001600160401b0381111561283257612832611ee5565b6128468161284084546126e9565b846127cb565b602080601f83116001811461287b57600084156128635750858301515b600019600386901b1c1916600185901b178555612811565b600085815260208120601f198616915b828110156128aa5788860151825594840194600190910190840161288b565b50858210156128c85787850151600019600388901b60f8161c191681555b5050505050600190811b01905550565b6001600160a01b0385811682526000906128f5602084018761200c565b608060408401526129096080840186612044565b915080841660608401525095945050505050565b6000815180845260208085019450848260051b86018286016000805b86811015612998578484038a52825180518086529087019087860190845b818110156129835783516007811061297157612971611ff6565b83529289019291890191600101612957565b50509a87019a94505091850191600101612939565b509198975050505050505050565b6001600160a01b03868116825260009060a09060206129c78186018a61200c565b604083818701526129da8487018a612044565b6060848a168189015260809450878203858901528189518084528584019150858160051b850101868c0160005b83811015612abc57601f1987840301855281518a8401612a288583516126a1565b818b0151858c018d9052805191829052600582901b86018e0191908c01908e87019060005b81811015612a7b57609f19898603018352612a69858551612044565b9450928e0192918e0191600101612a4d565b50505050898201518582038b870152612a94828261291d565b92890151801515878b0152929150612aa99050565b958a019593505090880190600101612a07565b50508099505050505050505050509695505050505050565b600060208284031215612ae657600080fd5b8151611763816122fe565b8082018082111561051057610510612774565b634e487b7160e01b600052603260045260246000fd5b6000808354612b28816126e9565b60018281168015612b405760018114612b5557612b84565b60ff1984168752821515830287019450612b84565b8760005260208060002060005b85811015612b7b5781548a820152908401908201612b62565b50505082870194505b50929695505050505050565b600060018201612ba257612ba2612774565b5060010190565b818103612bb4575050565b612bbe82546126e9565b6001600160401b03811115612bd557612bd5611ee5565b612be38161284084546126e9565b6000601f821160018114612c175760008315612bff5750848201545b600019600385901b1c1916600184901b178455612c7c565b600085815260209020601f19841690600086815260209020845b83811015612c515782860154825560019586019590910190602001612c31565b5085831015612c6f5781850154600019600388901b60f8161c191681555b50505060018360011b0184555b5050505050565b634e487b7160e01b600052603160045260246000fd5b60008351612cab818460208801612020565b835190830190612cbf818360208801612020565b0194935050505056fea2646970667358221220bbb2a514c1b8549ff77f79ebbd5b0826f2b4c937b3f05acb57b248ce3334803064736f6c63430008140033","linkReferences":{}},"methodIdentifiers":{"assign(string,address,uint256)":"4534ba17","bridge_address()":"1255c189","burn(string,uint256)":"b48272cc","getAllAssetsIDs()":"5137b8a7","getToken(string)":"c1733f68","isPaused()":"b187bd26","lock(string,uint256)":"e1efb596","mint(string,uint256)":"056b01ce","owner()":"8da5cb5b","pause()":"8456cb59","paused()":"5c975abb","renounceOwnership()":"715018a6","tokens(string)":"04c2320b","tokensInteractions(string,uint8)":"ea8f547f","transferOwnership(address)":"f2fde38b","unlock(string,uint256)":"d9cf884c","unpause()":"3f4ba83a","unwrap(string)":"a1bc17c5","wrap(address,uint8,string,address)":"72d4c33b","wrap(address,uint8,string,address,(uint8,string[],uint8[][],bool)[])":"623662ad"},"id":8}