{
  "abi": [
    {
      "anonymous": false,
      "inputs": [
        {
          "indexed": false,
          "internalType": "uint256",
          "name": "inputAmount",
          "type": "uint256"
        },
        {
          "indexed": false,
          "internalType": "uint256",
          "name": "outputAmount",
          "type": "uint256"
        },
        {
          "indexed": false,
          "internalType": "uint256",
          "name": "expiration",
          "type": "uint256"
        },
        {
          "indexed": true,
          "internalType": "bytes32",
          "name": "id",
          "type": "bytes32"
        },
        {
          "indexed": false,
          "internalType": "bytes32",
          "name": "hashLock",
          "type": "bytes32"
        },
        {
          "indexed": true,
          "internalType": "address",
          "name": "sender",
          "type": "address"
        },
        {
          "indexed": true,
          "internalType": "address",
          "name": "receiver",
          "type": "address"
        },
        {
          "indexed": false,
          "internalType": "string",
          "name": "outputNetwork",
          "type": "string"
        },
        {
          "indexed": false,
          "internalType": "string",
          "name": "outputAddress",
          "type": "string"
        }
      ],
      "name": "NewContract",
      "type": "event"
    },
    {
      "anonymous": false,
      "inputs": [
        {
          "indexed": true,
          "internalType": "bytes32",
          "name": "id",
          "type": "bytes32"
        },
        {
          "indexed": false,
          "internalType": "bytes32",
          "name": "hashLock",
          "type": "bytes32"
        },
        {
          "indexed": true,
          "internalType": "address",
          "name": "sender",
          "type": "address"
        },
        {
          "indexed": true,
          "internalType": "address",
          "name": "receiver",
          "type": "address"
        }
      ],
      "name": "Refund",
      "type": "event"
    },
    {
      "anonymous": false,
      "inputs": [
        {
          "indexed": true,
          "internalType": "bytes32",
          "name": "id",
          "type": "bytes32"
        },
        {
          "indexed": false,
          "internalType": "bytes32",
          "name": "secret",
          "type": "bytes32"
        },
        {
          "indexed": false,
          "internalType": "bytes32",
          "name": "hashLock",
          "type": "bytes32"
        },
        {
          "indexed": true,
          "internalType": "address",
          "name": "sender",
          "type": "address"
        },
        {
          "indexed": true,
          "internalType": "address",
          "name": "receiver",
          "type": "address"
        }
      ],
      "name": "Withdraw",
      "type": "event"
    },
    {
      "inputs": [
        {
          "internalType": "bytes32",
          "name": "id",
          "type": "bytes32"
        }
      ],
      "name": "contractExists",
      "outputs": [
        {
          "internalType": "bool",
          "name": "result",
          "type": "bool"
        }
      ],
      "stateMutability": "view",
      "type": "function"
    },
    {
      "inputs": [
        {
          "internalType": "bytes32",
          "name": "",
          "type": "bytes32"
        }
      ],
      "name": "contracts",
      "outputs": [
        {
          "internalType": "uint256",
          "name": "inputAmount",
          "type": "uint256"
        },
        {
          "internalType": "uint256",
          "name": "outputAmount",
          "type": "uint256"
        },
        {
          "internalType": "uint256",
          "name": "expiration",
          "type": "uint256"
        },
        {
          "internalType": "uint256",
          "name": "status",
          "type": "uint256"
        },
        {
          "internalType": "bytes32",
          "name": "hashLock",
          "type": "bytes32"
        },
        {
          "internalType": "address payable",
          "name": "sender",
          "type": "address"
        },
        {
          "internalType": "address payable",
          "name": "receiver",
          "type": "address"
        },
        {
          "internalType": "string",
          "name": "outputNetwork",
          "type": "string"
        },
        {
          "internalType": "string",
          "name": "outputAddress",
          "type": "string"
        }
      ],
      "stateMutability": "view",
      "type": "function"
    },
    {
      "inputs": [
        {
          "internalType": "bytes32",
          "name": "id",
          "type": "bytes32"
        }
      ],
      "name": "getSingleStatus",
      "outputs": [
        {
          "internalType": "uint256",
          "name": "result",
          "type": "uint256"
        }
      ],
      "stateMutability": "view",
      "type": "function"
    },
    {
      "inputs": [
        {
          "internalType": "bytes32[]",
          "name": "ids",
          "type": "bytes32[]"
        }
      ],
      "name": "getStatus",
      "outputs": [
        {
          "internalType": "uint256[]",
          "name": "",
          "type": "uint256[]"
        }
      ],
      "stateMutability": "view",
      "type": "function"
    },
    {
      "inputs": [
        {
          "internalType": "uint256",
          "name": "outputAmount",
          "type": "uint256"
        },
        {
          "internalType": "uint256",
          "name": "expiration",
          "type": "uint256"
        },
        {
          "internalType": "bytes32",
          "name": "hashLock",
          "type": "bytes32"
        },
        {
          "internalType": "address payable",
          "name": "receiver",
          "type": "address"
        },
        {
          "internalType": "string",
          "name": "outputNetwork",
          "type": "string"
        },
        {
          "internalType": "string",
          "name": "outputAddress",
          "type": "string"
        }
      ],
      "name": "newContract",
      "outputs": [],
      "stateMutability": "payable",
      "type": "function"
    },
    {
      "inputs": [
        {
          "internalType": "bytes32",
          "name": "id",
          "type": "bytes32"
        }
      ],
      "name": "refund",
      "outputs": [],
      "stateMutability": "nonpayable",
      "type": "function"
    },
    {
      "inputs": [
        {
          "internalType": "bytes32",
          "name": "id",
          "type": "bytes32"
        },
        {
          "internalType": "bytes32",
          "name": "secret",
          "type": "bytes32"
        }
      ],
      "name": "withdraw",
      "outputs": [],
      "stateMutability": "nonpayable",
      "type": "function"
    }
  ],
  "bytecode": {
    "object": "0x608060405234801561001057600080fd5b50611309806100206000396000f3fe6080604052600436106100705760003560e01c80637249fbb61161004e5780637249fbb6146100fd578063d36320951461011d578063ec56a37314610130578063fbdf3b431461016557600080fd5b80632f21a6631461007557806363615149146100ab5780636c8244b8146100cd575b600080fd5b34801561008157600080fd5b50610095610090366004610db6565b610193565b6040516100a29190610e74565b60405180910390f35b3480156100b757600080fd5b506100cb6100c6366004610eb8565b610241565b005b3480156100d957600080fd5b506100ed6100e8366004610eda565b610408565b60405190151581526020016100a2565b34801561010957600080fd5b506100cb610118366004610eda565b6105c2565b6100cb61012b366004610f3c565b610704565b34801561013c57600080fd5b5061015061014b366004610eda565b610a72565b6040516100a299989796959493929190611037565b34801561017157600080fd5b50610185610180366004610eda565b610bdb565b6040519081526020016100a2565b60606000825167ffffffffffffffff8111156101b1576101b1610da0565b6040519080825280602002602001820160405280156101da578160200160208202803683370190505b50905060005b835181101561023a5761020b8482815181106101fe576101fe6110a7565b6020026020010151610bdb565b82828151811061021d5761021d6110a7565b602090810291909101015280610232816110bd565b9150506101e0565b5092915050565b600082815260208190526040902060038101546001146102a85760405162461bcd60e51b815260206004820152600f60248201527f535741505f4e4f545f414354495645000000000000000000000000000000000060448201526064015b60405180910390fd5b428160020154116102ea5760405162461bcd60e51b815260206004820152600c60248201526b494e56414c49445f54494d4560a01b604482015260640161029f565b6040805160208101849052016040516020818303038152906040528051906020012081600401541461035e5760405162461bcd60e51b815260206004820152600e60248201527f494e56414c49445f534543524554000000000000000000000000000000000000604482015260640161029f565b600381810155600681015481546040516001600160a01b039092169181156108fc0291906000818181858888f193505050501580156103a1573d6000803e3d6000fd5b506006810154600582015460048301546040516001600160a01b0393841693929092169186917f2d3a5ed13d0553389b4078e01264416362e34d23520fda797fbc17f3905ed131916103fb91888252602082015260400190565b60405180910390a4505050565b60008181526020818152604080832081516101208101835281548152600182015493810193909352600281015491830191909152600381015460608301526004810154608083015260058101546001600160a01b0390811660a084015260068201541660c08301526007810180548493929160e0840191610488906110e4565b80601f01602080910402602001604051908101604052809291908181526020018280546104b4906110e4565b80156105015780601f106104d657610100808354040283529160200191610501565b820191906000526020600020905b8154815290600101906020018083116104e457829003601f168201915b5050505050815260200160088201805461051a906110e4565b80601f0160208091040260200160405190810160405280929190818152602001828054610546906110e4565b80156105935780601f1061056857610100808354040283529160200191610593565b820191906000526020600020905b81548152906001019060200180831161057657829003601f168201915b505050505081525050905060008160600151036105b35750600092915050565b50600192915050565b50919050565b600081815260208190526040902060038101546001146106245760405162461bcd60e51b815260206004820152600f60248201527f535741505f4e4f545f4143544956450000000000000000000000000000000000604482015260640161029f565b42816002015411156106675760405162461bcd60e51b815260206004820152600c60248201526b494e56414c49445f54494d4560a01b604482015260640161029f565b60026003820155600581015481546040516001600160a01b039092169181156108fc0291906000818181858888f193505050501580156106ab573d6000803e3d6000fd5b506006810154600582015460048301546040519081526001600160a01b03928316929091169084907f6fa50d56c31f3efe0cb6ff06232bffce8fe8c4155e3cbb6f2d79dd12631c25229060200160405180910390a45050565b33344289116107445760405162461bcd60e51b815260206004820152600c60248201526b494e56414c49445f54494d4560a01b604482015260640161029f565b600081116107945760405162461bcd60e51b815260206004820152600e60248201527f494e56414c49445f414d4f554e54000000000000000000000000000000000000604482015260640161029f565b6040516bffffffffffffffffffffffff19606084811b8216602084015289901b1660348201526048810182905260688101899052608881018a905260009060029060a80160408051601f19818403018152908290526107f291611118565b602060405180830381855afa15801561080f573d6000803e3d6000fd5b5050506040513d601f19601f820116820180604052508101906108329190611134565b600081815260208190526040902060030154909150156108945760405162461bcd60e51b815260206004820152600b60248201527f535741505f455849535453000000000000000000000000000000000000000000604482015260640161029f565b6040518061012001604052808381526020018c81526020018b8152602001600181526020018a8152602001846001600160a01b03168152602001896001600160a01b0316815260200188888080601f016020809104026020016040519081016040528093929190818152602001838380828437600092019190915250505090825250604080516020601f8901819004810282018101909252878152918101919088908890819084018382808284376000920182905250939094525050838152602081815260409182902084518155908401516001820155908301516002820155606083015160038201556080830151600482015560a08301516005820180546001600160a01b039283167fffffffffffffffffffffffff00000000000000000000000000000000000000009182161790915560c085015160068401805491909316911617905560e083015190915060078201906109f1908261119c565b506101008201516008820190610a07908261119c565b50905050876001600160a01b0316836001600160a01b0316827f767d0ffbc3d16cc51fc05770a22976e4b0fda9198e37878b76979429b2d5d88c858f8f8f8e8e8e8e604051610a5d989796959493929190611285565b60405180910390a45050505050505050505050565b60006020819052908152604090208054600182015460028301546003840154600485015460058601546006870154600788018054979896979596949593946001600160a01b03938416949390921692610aca906110e4565b80601f0160208091040260200160405190810160405280929190818152602001828054610af6906110e4565b8015610b435780601f10610b1857610100808354040283529160200191610b43565b820191906000526020600020905b815481529060010190602001808311610b2657829003601f168201915b505050505090806008018054610b58906110e4565b80601f0160208091040260200160405190810160405280929190818152602001828054610b84906110e4565b8015610bd15780601f10610ba657610100808354040283529160200191610bd1565b820191906000526020600020905b815481529060010190602001808311610bb457829003601f168201915b5050505050905089565b60008181526020818152604080832081516101208101835281548152600182015493810193909352600281015491830191909152600381015460608301526004810154608083015260058101546001600160a01b0390811660a084015260068201541660c08301526007810180548493929160e0840191610c5b906110e4565b80601f0160208091040260200160405190810160405280929190818152602001828054610c87906110e4565b8015610cd45780601f10610ca957610100808354040283529160200191610cd4565b820191906000526020600020905b815481529060010190602001808311610cb757829003601f168201915b50505050508152602001600882018054610ced906110e4565b80601f0160208091040260200160405190810160405280929190818152602001828054610d19906110e4565b8015610d665780601f10610d3b57610100808354040283529160200191610d66565b820191906000526020600020905b815481529060010190602001808311610d4957829003601f168201915b505050505081525050905060018160600151148015610d885750428160400151105b15610d9657600491506105bc565b6060015192915050565b634e487b7160e01b600052604160045260246000fd5b60006020808385031215610dc957600080fd5b823567ffffffffffffffff80821115610de157600080fd5b818501915085601f830112610df557600080fd5b813581811115610e0757610e07610da0565b8060051b604051601f19603f83011681018181108582111715610e2c57610e2c610da0565b604052918252848201925083810185019188831115610e4a57600080fd5b938501935b82851015610e6857843584529385019392850192610e4f565b98975050505050505050565b6020808252825182820181905260009190848201906040850190845b81811015610eac57835183529284019291840191600101610e90565b50909695505050505050565b60008060408385031215610ecb57600080fd5b50508035926020909101359150565b600060208284031215610eec57600080fd5b5035919050565b60008083601f840112610f0557600080fd5b50813567ffffffffffffffff811115610f1d57600080fd5b602083019150836020828501011115610f3557600080fd5b9250929050565b60008060008060008060008060c0898b031215610f5857600080fd5b88359750602089013596506040890135955060608901356001600160a01b0381168114610f8457600080fd5b9450608089013567ffffffffffffffff80821115610fa157600080fd5b610fad8c838d01610ef3565b909650945060a08b0135915080821115610fc657600080fd5b50610fd38b828c01610ef3565b999c989b5096995094979396929594505050565b60005b83811015611002578181015183820152602001610fea565b50506000910152565b60008151808452611023816020860160208601610fe7565b601f01601f19169290920160200192915050565b60006101208b83528a60208401528960408401528860608401528760808401526001600160a01b0380881660a085015280871660c0850152508060e08401526110828184018661100b565b9050828103610100840152611097818561100b565b9c9b505050505050505050505050565b634e487b7160e01b600052603260045260246000fd5b6000600182016110dd57634e487b7160e01b600052601160045260246000fd5b5060010190565b600181811c908216806110f857607f821691505b6020821081036105bc57634e487b7160e01b600052602260045260246000fd5b6000825161112a818460208701610fe7565b9190910192915050565b60006020828403121561114657600080fd5b5051919050565b601f82111561119757600081815260208120601f850160051c810160208610156111745750805b601f850160051c820191505b8181101561119357828155600101611180565b5050505b505050565b815167ffffffffffffffff8111156111b6576111b6610da0565b6111ca816111c484546110e4565b8461114d565b602080601f8311600181146111ff57600084156111e75750858301515b600019600386901b1c1916600185901b178555611193565b600085815260208120601f198616915b8281101561122e5788860151825594840194600190910190840161120f565b508582101561124c5787850151600019600388901b60f8161c191681555b5050505050600190811b01905550565b81835281816020850137506000828201602090810191909152601f909101601f19169091010190565b88815287602082015286604082015285606082015260c0608082015260006112b160c08301868861125c565b82810360a08401526112c481858761125c565b9b9a505050505050505050505056fea2646970667358221220c03975ac83c04811571f266015b384540f96b1e8982e9b8e9f5c332d7940507364736f6c63430008130033",
    "linkReferences": {}
  },
  "methodIdentifiers": {
    "contractExists(bytes32)": "6c8244b8",
    "contracts(bytes32)": "ec56a373",
    "getSingleStatus(bytes32)": "fbdf3b43",
    "getStatus(bytes32[])": "2f21a663",
    "newContract(uint256,uint256,bytes32,address,string,string)": "d3632095",
    "refund(bytes32)": "7249fbb6",
    "withdraw(bytes32,bytes32)": "63615149"
  },
  "id": 0
}